{
  "contractName": "DLTSCBTokenV1",
  "abi": [
    {
      "inputs": [],
      "stateMutability": "nonpayable",
      "type": "constructor"
    },
    {
      "anonymous": false,
      "inputs": [
        {
          "indexed": false,
          "internalType": "address",
          "name": "previousAdmin",
          "type": "address"
        },
        {
          "indexed": false,
          "internalType": "address",
          "name": "newAdmin",
          "type": "address"
        }
      ],
      "name": "AdminChanged",
      "type": "event"
    },
    {
      "anonymous": false,
      "inputs": [
        {
          "indexed": true,
          "internalType": "address",
          "name": "owner",
          "type": "address"
        },
        {
          "indexed": true,
          "internalType": "address",
          "name": "spender",
          "type": "address"
        },
        {
          "indexed": false,
          "internalType": "uint256",
          "name": "value",
          "type": "uint256"
        }
      ],
      "name": "Approval",
      "type": "event"
    },
    {
      "anonymous": false,
      "inputs": [
        {
          "indexed": true,
          "internalType": "address",
          "name": "beacon",
          "type": "address"
        }
      ],
      "name": "BeaconUpgraded",
      "type": "event"
    },
    {
      "anonymous": false,
      "inputs": [
        {
          "indexed": true,
          "internalType": "bytes32",
          "name": "role",
          "type": "bytes32"
        },
        {
          "indexed": true,
          "internalType": "bytes32",
          "name": "previousAdminRole",
          "type": "bytes32"
        },
        {
          "indexed": true,
          "internalType": "bytes32",
          "name": "newAdminRole",
          "type": "bytes32"
        }
      ],
      "name": "RoleAdminChanged",
      "type": "event"
    },
    {
      "anonymous": false,
      "inputs": [
        {
          "indexed": true,
          "internalType": "bytes32",
          "name": "role",
          "type": "bytes32"
        },
        {
          "indexed": true,
          "internalType": "address",
          "name": "account",
          "type": "address"
        },
        {
          "indexed": true,
          "internalType": "address",
          "name": "sender",
          "type": "address"
        }
      ],
      "name": "RoleGranted",
      "type": "event"
    },
    {
      "anonymous": false,
      "inputs": [
        {
          "indexed": true,
          "internalType": "bytes32",
          "name": "role",
          "type": "bytes32"
        },
        {
          "indexed": true,
          "internalType": "address",
          "name": "account",
          "type": "address"
        },
        {
          "indexed": true,
          "internalType": "address",
          "name": "sender",
          "type": "address"
        }
      ],
      "name": "RoleRevoked",
      "type": "event"
    },
    {
      "anonymous": false,
      "inputs": [
        {
          "indexed": true,
          "internalType": "address",
          "name": "from",
          "type": "address"
        },
        {
          "indexed": true,
          "internalType": "address",
          "name": "to",
          "type": "address"
        },
        {
          "indexed": false,
          "internalType": "uint256",
          "name": "value",
          "type": "uint256"
        }
      ],
      "name": "Transfer",
      "type": "event"
    },
    {
      "anonymous": false,
      "inputs": [
        {
          "indexed": true,
          "internalType": "address",
          "name": "implementation",
          "type": "address"
        }
      ],
      "name": "Upgraded",
      "type": "event"
    },
    {
      "inputs": [],
      "name": "DEFAULT_ADMIN_ROLE",
      "outputs": [
        {
          "internalType": "bytes32",
          "name": "",
          "type": "bytes32"
        }
      ],
      "stateMutability": "view",
      "type": "function",
      "constant": true
    },
    {
      "inputs": [],
      "name": "MINTER_ROLE",
      "outputs": [
        {
          "internalType": "bytes32",
          "name": "",
          "type": "bytes32"
        }
      ],
      "stateMutability": "view",
      "type": "function",
      "constant": true
    },
    {
      "inputs": [],
      "name": "UPGRADER_ROLE",
      "outputs": [
        {
          "internalType": "bytes32",
          "name": "",
          "type": "bytes32"
        }
      ],
      "stateMutability": "view",
      "type": "function",
      "constant": true
    },
    {
      "inputs": [],
      "name": "USER_ROLE",
      "outputs": [
        {
          "internalType": "bytes32",
          "name": "",
          "type": "bytes32"
        }
      ],
      "stateMutability": "view",
      "type": "function",
      "constant": true
    },
    {
      "inputs": [
        {
          "internalType": "address",
          "name": "owner",
          "type": "address"
        },
        {
          "internalType": "address",
          "name": "spender",
          "type": "address"
        }
      ],
      "name": "allowance",
      "outputs": [
        {
          "internalType": "uint256",
          "name": "",
          "type": "uint256"
        }
      ],
      "stateMutability": "view",
      "type": "function",
      "constant": true
    },
    {
      "inputs": [
        {
          "internalType": "address",
          "name": "spender",
          "type": "address"
        },
        {
          "internalType": "uint256",
          "name": "amount",
          "type": "uint256"
        }
      ],
      "name": "approve",
      "outputs": [
        {
          "internalType": "bool",
          "name": "",
          "type": "bool"
        }
      ],
      "stateMutability": "nonpayable",
      "type": "function"
    },
    {
      "inputs": [
        {
          "internalType": "address",
          "name": "account",
          "type": "address"
        }
      ],
      "name": "balanceOf",
      "outputs": [
        {
          "internalType": "uint256",
          "name": "",
          "type": "uint256"
        }
      ],
      "stateMutability": "view",
      "type": "function",
      "constant": true
    },
    {
      "inputs": [
        {
          "internalType": "uint256",
          "name": "amount",
          "type": "uint256"
        }
      ],
      "name": "burn",
      "outputs": [],
      "stateMutability": "nonpayable",
      "type": "function"
    },
    {
      "inputs": [
        {
          "internalType": "address",
          "name": "account",
          "type": "address"
        },
        {
          "internalType": "uint256",
          "name": "amount",
          "type": "uint256"
        }
      ],
      "name": "burnFrom",
      "outputs": [],
      "stateMutability": "nonpayable",
      "type": "function"
    },
    {
      "inputs": [],
      "name": "count",
      "outputs": [
        {
          "internalType": "uint256",
          "name": "",
          "type": "uint256"
        }
      ],
      "stateMutability": "view",
      "type": "function",
      "constant": true
    },
    {
      "inputs": [],
      "name": "decimals",
      "outputs": [
        {
          "internalType": "uint8",
          "name": "",
          "type": "uint8"
        }
      ],
      "stateMutability": "view",
      "type": "function",
      "constant": true
    },
    {
      "inputs": [
        {
          "internalType": "address",
          "name": "spender",
          "type": "address"
        },
        {
          "internalType": "uint256",
          "name": "subtractedValue",
          "type": "uint256"
        }
      ],
      "name": "decreaseAllowance",
      "outputs": [
        {
          "internalType": "bool",
          "name": "",
          "type": "bool"
        }
      ],
      "stateMutability": "nonpayable",
      "type": "function"
    },
    {
      "inputs": [
        {
          "internalType": "bytes32",
          "name": "role",
          "type": "bytes32"
        }
      ],
      "name": "getRoleAdmin",
      "outputs": [
        {
          "internalType": "bytes32",
          "name": "",
          "type": "bytes32"
        }
      ],
      "stateMutability": "view",
      "type": "function",
      "constant": true
    },
    {
      "inputs": [
        {
          "internalType": "bytes32",
          "name": "role",
          "type": "bytes32"
        },
        {
          "internalType": "address",
          "name": "account",
          "type": "address"
        }
      ],
      "name": "grantRole",
      "outputs": [],
      "stateMutability": "nonpayable",
      "type": "function"
    },
    {
      "inputs": [
        {
          "internalType": "bytes32",
          "name": "role",
          "type": "bytes32"
        },
        {
          "internalType": "address",
          "name": "account",
          "type": "address"
        }
      ],
      "name": "hasRole",
      "outputs": [
        {
          "internalType": "bool",
          "name": "",
          "type": "bool"
        }
      ],
      "stateMutability": "view",
      "type": "function",
      "constant": true
    },
    {
      "inputs": [
        {
          "internalType": "address",
          "name": "spender",
          "type": "address"
        },
        {
          "internalType": "uint256",
          "name": "addedValue",
          "type": "uint256"
        }
      ],
      "name": "increaseAllowance",
      "outputs": [
        {
          "internalType": "bool",
          "name": "",
          "type": "bool"
        }
      ],
      "stateMutability": "nonpayable",
      "type": "function"
    },
    {
      "inputs": [],
      "name": "name",
      "outputs": [
        {
          "internalType": "string",
          "name": "",
          "type": "string"
        }
      ],
      "stateMutability": "view",
      "type": "function",
      "constant": true
    },
    {
      "inputs": [],
      "name": "proxiableUUID",
      "outputs": [
        {
          "internalType": "bytes32",
          "name": "",
          "type": "bytes32"
        }
      ],
      "stateMutability": "view",
      "type": "function",
      "constant": true
    },
    {
      "inputs": [
        {
          "internalType": "bytes32",
          "name": "role",
          "type": "bytes32"
        },
        {
          "internalType": "address",
          "name": "account",
          "type": "address"
        }
      ],
      "name": "renounceRole",
      "outputs": [],
      "stateMutability": "nonpayable",
      "type": "function"
    },
    {
      "inputs": [
        {
          "internalType": "bytes32",
          "name": "role",
          "type": "bytes32"
        },
        {
          "internalType": "address",
          "name": "account",
          "type": "address"
        }
      ],
      "name": "revokeRole",
      "outputs": [],
      "stateMutability": "nonpayable",
      "type": "function"
    },
    {
      "inputs": [
        {
          "internalType": "bytes4",
          "name": "interfaceId",
          "type": "bytes4"
        }
      ],
      "name": "supportsInterface",
      "outputs": [
        {
          "internalType": "bool",
          "name": "",
          "type": "bool"
        }
      ],
      "stateMutability": "view",
      "type": "function",
      "constant": true
    },
    {
      "inputs": [],
      "name": "symbol",
      "outputs": [
        {
          "internalType": "string",
          "name": "",
          "type": "string"
        }
      ],
      "stateMutability": "view",
      "type": "function",
      "constant": true
    },
    {
      "inputs": [],
      "name": "totalSupply",
      "outputs": [
        {
          "internalType": "uint256",
          "name": "",
          "type": "uint256"
        }
      ],
      "stateMutability": "view",
      "type": "function",
      "constant": true
    },
    {
      "inputs": [
        {
          "internalType": "address",
          "name": "to",
          "type": "address"
        },
        {
          "internalType": "uint256",
          "name": "amount",
          "type": "uint256"
        }
      ],
      "name": "transfer",
      "outputs": [
        {
          "internalType": "bool",
          "name": "",
          "type": "bool"
        }
      ],
      "stateMutability": "nonpayable",
      "type": "function"
    },
    {
      "inputs": [
        {
          "internalType": "address",
          "name": "from",
          "type": "address"
        },
        {
          "internalType": "address",
          "name": "to",
          "type": "address"
        },
        {
          "internalType": "uint256",
          "name": "amount",
          "type": "uint256"
        }
      ],
      "name": "transferFrom",
      "outputs": [
        {
          "internalType": "bool",
          "name": "",
          "type": "bool"
        }
      ],
      "stateMutability": "nonpayable",
      "type": "function"
    },
    {
      "inputs": [
        {
          "internalType": "address",
          "name": "newImplementation",
          "type": "address"
        }
      ],
      "name": "upgradeTo",
      "outputs": [],
      "stateMutability": "nonpayable",
      "type": "function"
    },
    {
      "inputs": [
        {
          "internalType": "address",
          "name": "newImplementation",
          "type": "address"
        },
        {
          "internalType": "bytes",
          "name": "data",
          "type": "bytes"
        }
      ],
      "name": "upgradeToAndCall",
      "outputs": [],
      "stateMutability": "payable",
      "type": "function",
      "payable": true
    },
    {
      "inputs": [],
      "name": "initialize",
      "outputs": [],
      "stateMutability": "nonpayable",
      "type": "function"
    },
    {
      "inputs": [
        {
          "internalType": "address",
          "name": "account",
          "type": "address"
        }
      ],
      "name": "addUserToAdminRole",
      "outputs": [],
      "stateMutability": "nonpayable",
      "type": "function"
    },
    {
      "inputs": [
        {
          "internalType": "address",
          "name": "account",
          "type": "address"
        }
      ],
      "name": "addUserRole",
      "outputs": [],
      "stateMutability": "nonpayable",
      "type": "function"
    },
    {
      "inputs": [
        {
          "internalType": "address",
          "name": "account",
          "type": "address"
        }
      ],
      "name": "isUserRole",
      "outputs": [
        {
          "internalType": "bool",
          "name": "",
          "type": "bool"
        }
      ],
      "stateMutability": "view",
      "type": "function",
      "constant": true
    },
    {
      "inputs": [
        {
          "internalType": "address",
          "name": "_account",
          "type": "address"
        }
      ],
      "name": "revokeUserRole",
      "outputs": [],
      "stateMutability": "nonpayable",
      "type": "function"
    },
    {
      "inputs": [
        {
          "internalType": "address",
          "name": "to",
          "type": "address"
        },
        {
          "internalType": "uint256",
          "name": "amount",
          "type": "uint256"
        }
      ],
      "name": "mint",
      "outputs": [],
      "stateMutability": "nonpayable",
      "type": "function"
    },
    {
      "inputs": [],
      "name": "increment",
      "outputs": [],
      "stateMutability": "nonpayable",
      "type": "function"
    },
    {
      "inputs": [],
      "name": "decrement",
      "outputs": [],
      "stateMutability": "nonpayable",
      "type": "function"
    },
    {
      "inputs": [],
      "name": "getCount",
      "outputs": [
        {
          "internalType": "uint256",
          "name": "",
          "type": "uint256"
        }
      ],
      "stateMutability": "view",
      "type": "function",
      "constant": true
    },
    {
      "inputs": [],
      "name": "getCount2",
      "outputs": [
        {
          "internalType": "uint256",
          "name": "",
          "type": "uint256"
        }
      ],
      "stateMutability": "view",
      "type": "function",
      "constant": true
    },
    {
      "inputs": [],
      "name": "decrement2",
      "outputs": [],
      "stateMutability": "nonpayable",
      "type": "function"
    }
  ],
  "bytecode": "0x60a06040523073ffffffffffffffffffffffffffffffffffffffff1660809073ffffffffffffffffffffffffffffffffffffffff168152503480156200004457600080fd5b50600060019054906101000a900460ff166200006f5760008054906101000a900460ff161562000080565b6200007f6200013c60201b60201c565b5b620000c2576040517f08c379a0000000000000000000000000000000000000000000000000000000008152600401620000b99062000204565b60405180910390fd5b60008060019054906101000a900460ff16159050801562000113576001600060016101000a81548160ff02191690831515021790555060016000806101000a81548160ff0219169083151502179055505b8015620001355760008060016101000a81548160ff0219169083151502179055505b5062000226565b600062000154306200015a60201b620017791760201c565b15905090565b6000808273ffffffffffffffffffffffffffffffffffffffff163b119050919050565b600082825260208201905092915050565b7f496e697469616c697a61626c653a20636f6e747261637420697320616c72656160008201527f647920696e697469616c697a6564000000000000000000000000000000000000602082015250565b6000620001ec602e836200017d565b9150620001f9826200018e565b604082019050919050565b600060208201905081810360008301526200021f81620001dd565b9050919050565b6080516142c46200025e60003960008181610be501528181610c7401528181610e6d01528181610efc0152610fac01526142c46000f3fe6080604052600436106102255760003560e01c806356cf15ad11610123578063a87d942c116100ab578063d547741f1161006f578063d547741f146107e6578063d631c6391461080f578063dd62ed3e1461083a578063e46962f114610877578063f72c0d8b146108b457610225565b8063a87d942c14610713578063a9059cbb1461073e578063bd73b25d1461077b578063d09de08a146107a4578063d5391393146107bb57610225565b806391d14854116100f257806391d148541461061a57806395d89b41146106575780639dcaf0c814610682578063a217fddf146106ab578063a457c2d7146106d657610225565b806356cf15ad1461057457806370a082311461059d57806379cc6790146105da5780638129fc1c1461060357610225565b80632baeceb7116101b15780633950935111610175578063395093511461049e57806340c10f19146104db57806342966c68146105045780634f1ef2861461052d57806352d1902d1461054957610225565b80632baeceb7146103e15780632f2ff15d146103f8578063313ce5671461042157806336568abe1461044c5780633659cfe61461047557610225565b8063095ea7b3116101f8578063095ea7b3146102d4578063131191611461031157806318160ddd1461033c57806323b872dd14610367578063248a9ca3146103a457610225565b806301ffc9a71461022a57806306661abd1461026757806306fdde0314610292578063077b0f40146102bd575b600080fd5b34801561023657600080fd5b50610251600480360381019061024c9190612c48565b6108df565b60405161025e9190612c90565b60405180910390f35b34801561027357600080fd5b5061027c610959565b6040516102899190612cc4565b60405180910390f35b34801561029e57600080fd5b506102a7610960565b6040516102b49190612d78565b60405180910390f35b3480156102c957600080fd5b506102d26109f2565b005b3480156102e057600080fd5b506102fb60048036038101906102f69190612e24565b610a40565b6040516103089190612c90565b60405180910390f35b34801561031d57600080fd5b50610326610a63565b6040516103339190612e7d565b60405180910390f35b34801561034857600080fd5b50610351610a87565b60405161035e9190612cc4565b60405180910390f35b34801561037357600080fd5b5061038e60048036038101906103899190612e98565b610a91565b60405161039b9190612c90565b60405180910390f35b3480156103b057600080fd5b506103cb60048036038101906103c69190612f17565b610ac0565b6040516103d89190612e7d565b60405180910390f35b3480156103ed57600080fd5b506103f6610ae0565b005b34801561040457600080fd5b5061041f600480360381019061041a9190612f44565b610b2e565b005b34801561042d57600080fd5b50610436610b57565b6040516104439190612fa0565b60405180910390f35b34801561045857600080fd5b50610473600480360381019061046e9190612f44565b610b60565b005b34801561048157600080fd5b5061049c60048036038101906104979190612fbb565b610be3565b005b3480156104aa57600080fd5b506104c560048036038101906104c09190612e24565b610d6c565b6040516104d29190612c90565b60405180910390f35b3480156104e757600080fd5b5061050260048036038101906104fd9190612e24565b610e16565b005b34801561051057600080fd5b5061052b60048036038101906105269190612fe8565b610e57565b005b6105476004803603810190610542919061314a565b610e6b565b005b34801561055557600080fd5b5061055e610fa8565b60405161056b9190612e7d565b60405180910390f35b34801561058057600080fd5b5061059b60048036038101906105969190612fbb565b611061565b005b3480156105a957600080fd5b506105c460048036038101906105bf9190612fbb565b6110a4565b6040516105d19190612cc4565b60405180910390f35b3480156105e657600080fd5b5061060160048036038101906105fc9190612e24565b6110ed565b005b34801561060f57600080fd5b5061061861110d565b005b34801561062657600080fd5b50610641600480360381019061063c9190612f44565b61133b565b60405161064e9190612c90565b60405180910390f35b34801561066357600080fd5b5061066c6113a6565b6040516106799190612d78565b60405180910390f35b34801561068e57600080fd5b506106a960048036038101906106a49190612fbb565b611438565b005b3480156106b757600080fd5b506106c061145e565b6040516106cd9190612e7d565b60405180910390f35b3480156106e257600080fd5b506106fd60048036038101906106f89190612e24565b611465565b60405161070a9190612c90565b60405180910390f35b34801561071f57600080fd5b5061072861154f565b6040516107359190612cc4565b60405180910390f35b34801561074a57600080fd5b5061076560048036038101906107609190612e24565b61155a565b6040516107729190612c90565b60405180910390f35b34801561078757600080fd5b506107a2600480360381019061079d9190612fbb565b61157d565b005b3480156107b057600080fd5b506107b96115c0565b005b3480156107c757600080fd5b506107d0611610565b6040516107dd9190612e7d565b60405180910390f35b3480156107f257600080fd5b5061080d60048036038101906108089190612f44565b611634565b005b34801561081b57600080fd5b5061082461165d565b6040516108319190612cc4565b60405180910390f35b34801561084657600080fd5b50610861600480360381019061085c91906131a6565b61169b565b60405161086e9190612cc4565b60405180910390f35b34801561088357600080fd5b5061089e60048036038101906108999190612fbb565b611722565b6040516108ab9190612c90565b60405180910390f35b3480156108c057600080fd5b506108c9611755565b6040516108d69190612e7d565b60405180910390f35b60007f7965db0b000000000000000000000000000000000000000000000000000000007bffffffffffffffffffffffffffffffffffffffffffffffffffffffff1916827bffffffffffffffffffffffffffffffffffffffffffffffffffffffff1916148061095257506109518261179c565b5b9050919050565b61015f5481565b60606036805461096f90613215565b80601f016020809104026020016040519081016040528092919081815260200182805461099b90613215565b80156109e85780601f106109bd576101008083540402835291602001916109e8565b820191906000526020600020905b8154815290600101906020018083116109cb57829003601f168201915b5050505050905090565b7f14823911f2da1b49f045a0929a60b8c1f2a7fc8c06c7284ca3e8ab4e193a08c8610a2481610a1f611806565b61180e565b61015f6000815480929190610a3890613276565b919050555050565b600080610a4b611806565b9050610a588185856118ab565b600191505092915050565b7f14823911f2da1b49f045a0929a60b8c1f2a7fc8c06c7284ca3e8ab4e193a08c881565b6000603554905090565b600080610a9c611806565b9050610aa9858285611a76565b610ab4858585611b02565b60019150509392505050565b600060c96000838152602001908152602001600020600101549050919050565b7f14823911f2da1b49f045a0929a60b8c1f2a7fc8c06c7284ca3e8ab4e193a08c8610b1281610b0d611806565b61180e565b61015f6000815480929190610b2690613276565b919050555050565b610b3782610ac0565b610b4881610b43611806565b61180e565b610b528383611d86565b505050565b60006012905090565b610b68611806565b73ffffffffffffffffffffffffffffffffffffffff168173ffffffffffffffffffffffffffffffffffffffff1614610bd5576040517f08c379a0000000000000000000000000000000000000000000000000000000008152600401610bcc90613312565b60405180910390fd5b610bdf8282611e67565b5050565b7f000000000000000000000000000000000000000000000000000000000000000073ffffffffffffffffffffffffffffffffffffffff163073ffffffffffffffffffffffffffffffffffffffff161415610c72576040517f08c379a0000000000000000000000000000000000000000000000000000000008152600401610c69906133a4565b60405180910390fd5b7f000000000000000000000000000000000000000000000000000000000000000073ffffffffffffffffffffffffffffffffffffffff16610cb1611f49565b73ffffffffffffffffffffffffffffffffffffffff1614610d07576040517f08c379a0000000000000000000000000000000000000000000000000000000008152600401610cfe90613436565b60405180910390fd5b610d1081611fa0565b610d6981600067ffffffffffffffff811115610d2f57610d2e61301f565b5b6040519080825280601f01601f191660200182016040528015610d615781602001600182028036833780820191505090505b506000611fd6565b50565b600080610d77611806565b9050610e0b818585603460008673ffffffffffffffffffffffffffffffffffffffff1673ffffffffffffffffffffffffffffffffffffffff16815260200190815260200160002060008973ffffffffffffffffffffffffffffffffffffffff1673ffffffffffffffffffffffffffffffffffffffff16815260200190815260200160002054610e069190613456565b6118ab565b600191505092915050565b7f9f2df0fed2c77648de5860a4cc508cd0818c85b8b8a1ab4ceeef8d981c8956a6610e4881610e43611806565b61180e565b610e528383612144565b505050565b610e68610e62611806565b826122a5565b50565b7f000000000000000000000000000000000000000000000000000000000000000073ffffffffffffffffffffffffffffffffffffffff163073ffffffffffffffffffffffffffffffffffffffff161415610efa576040517f08c379a0000000000000000000000000000000000000000000000000000000008152600401610ef1906133a4565b60405180910390fd5b7f000000000000000000000000000000000000000000000000000000000000000073ffffffffffffffffffffffffffffffffffffffff16610f39611f49565b73ffffffffffffffffffffffffffffffffffffffff1614610f8f576040517f08c379a0000000000000000000000000000000000000000000000000000000008152600401610f8690613436565b60405180910390fd5b610f9882611fa0565b610fa482826001611fd6565b5050565b60007f000000000000000000000000000000000000000000000000000000000000000073ffffffffffffffffffffffffffffffffffffffff163073ffffffffffffffffffffffffffffffffffffffff1614611038576040517f08c379a000000000000000000000000000000000000000000000000000000000815260040161102f9061351e565b60405180910390fd5b7f360894a13ba1a3210667c828492db98dca3e2076cc3735a920a3ca505d382bbc60001b905090565b6000801b61107681611071611806565b61180e565b6110a07f14823911f2da1b49f045a0929a60b8c1f2a7fc8c06c7284ca3e8ab4e193a08c883610b2e565b5050565b6000603360008373ffffffffffffffffffffffffffffffffffffffff1673ffffffffffffffffffffffffffffffffffffffff168152602001908152602001600020549050919050565b6110ff826110f9611806565b83611a76565b61110982826122a5565b5050565b600060019054906101000a900460ff166111355760008054906101000a900460ff161561113e565b61113d61247e565b5b61117d576040517f08c379a0000000000000000000000000000000000000000000000000000000008152600401611174906135b0565b60405180910390fd5b60008060019054906101000a900460ff1615905080156111cd576001600060016101000a81548160ff02191690831515021790555060016000806101000a81548160ff0219169083151502179055505b6112416040518060400160405280600b81526020017f444c54534342546f6b656e0000000000000000000000000000000000000000008152506040518060400160405280600381526020017f534342000000000000000000000000000000000000000000000000000000000081525061248f565b6112496124ec565b61125161253d565b61125961258e565b61128333611265610b57565b600a6112719190613703565b6103e861127e919061374e565b612144565b6112906000801b33611d86565b6112ba7f9f2df0fed2c77648de5860a4cc508cd0818c85b8b8a1ab4ceeef8d981c8956a633611d86565b6112e47f189ab7a9244df0848122154315af71fe140f3db0fe014031783b0946b8c9d2e333611d86565b61130e7f14823911f2da1b49f045a0929a60b8c1f2a7fc8c06c7284ca3e8ab4e193a08c833611d86565b600061015f8190555080156113385760008060016101000a81548160ff0219169083151502179055505b50565b600060c9600084815260200190815260200160002060000160008373ffffffffffffffffffffffffffffffffffffffff1673ffffffffffffffffffffffffffffffffffffffff16815260200190815260200160002060009054906101000a900460ff16905092915050565b6060603780546113b590613215565b80601f01602080910402602001604051908101604052809291908181526020018280546113e190613215565b801561142e5780601f106114035761010080835404028352916020019161142e565b820191906000526020600020905b81548152906001019060200180831161141157829003601f168201915b5050505050905090565b6000801b61144d81611448611806565b61180e565b61145a6000801b83610b2e565b5050565b6000801b81565b600080611470611806565b90506000603460008373ffffffffffffffffffffffffffffffffffffffff1673ffffffffffffffffffffffffffffffffffffffff16815260200190815260200160002060008673ffffffffffffffffffffffffffffffffffffffff1673ffffffffffffffffffffffffffffffffffffffff16815260200190815260200160002054905083811015611536576040517f08c379a000000000000000000000000000000000000000000000000000000000815260040161152d9061381a565b60405180910390fd5b61154382868684036118ab565b60019250505092915050565b600061015f54905090565b600080611565611806565b9050611572818585611b02565b600191505092915050565b6000801b6115928161158d611806565b61180e565b6115bc7f14823911f2da1b49f045a0929a60b8c1f2a7fc8c06c7284ca3e8ab4e193a08c883611e67565b5050565b7f14823911f2da1b49f045a0929a60b8c1f2a7fc8c06c7284ca3e8ab4e193a08c86115f2816115ed611806565b61180e565b600161015f60008282546116069190613456565b9250508190555050565b7f9f2df0fed2c77648de5860a4cc508cd0818c85b8b8a1ab4ceeef8d981c8956a681565b61163d82610ac0565b61164e81611649611806565b61180e565b6116588383611e67565b505050565b60007f14823911f2da1b49f045a0929a60b8c1f2a7fc8c06c7284ca3e8ab4e193a08c86116918161168c611806565b61180e565b61015f5491505090565b6000603460008473ffffffffffffffffffffffffffffffffffffffff1673ffffffffffffffffffffffffffffffffffffffff16815260200190815260200160002060008373ffffffffffffffffffffffffffffffffffffffff1673ffffffffffffffffffffffffffffffffffffffff16815260200190815260200160002054905092915050565b600061174e7f14823911f2da1b49f045a0929a60b8c1f2a7fc8c06c7284ca3e8ab4e193a08c88361133b565b9050919050565b7f189ab7a9244df0848122154315af71fe140f3db0fe014031783b0946b8c9d2e381565b6000808273ffffffffffffffffffffffffffffffffffffffff163b119050919050565b60007f01ffc9a7000000000000000000000000000000000000000000000000000000007bffffffffffffffffffffffffffffffffffffffffffffffffffffffff1916827bffffffffffffffffffffffffffffffffffffffffffffffffffffffff1916149050919050565b600033905090565b611818828261133b565b6118a75761183d8173ffffffffffffffffffffffffffffffffffffffff1660146125df565b61184b8360001c60206125df565b60405160200161185c92919061390e565b6040516020818303038152906040526040517f08c379a000000000000000000000000000000000000000000000000000000000815260040161189e9190612d78565b60405180910390fd5b5050565b600073ffffffffffffffffffffffffffffffffffffffff168373ffffffffffffffffffffffffffffffffffffffff16141561191b576040517f08c379a0000000000000000000000000000000000000000000000000000000008152600401611912906139ba565b60405180910390fd5b600073ffffffffffffffffffffffffffffffffffffffff168273ffffffffffffffffffffffffffffffffffffffff16141561198b576040517f08c379a000000000000000000000000000000000000000000000000000000000815260040161198290613a4c565b60405180910390fd5b80603460008573ffffffffffffffffffffffffffffffffffffffff1673ffffffffffffffffffffffffffffffffffffffff16815260200190815260200160002060008473ffffffffffffffffffffffffffffffffffffffff1673ffffffffffffffffffffffffffffffffffffffff168152602001908152602001600020819055508173ffffffffffffffffffffffffffffffffffffffff168373ffffffffffffffffffffffffffffffffffffffff167f8c5be1e5ebec7d5bd14f71427d1e84f3dd0314c0f7b2291e5b200ac8c7c3b92583604051611a699190612cc4565b60405180910390a3505050565b6000611a82848461169b565b90507fffffffffffffffffffffffffffffffffffffffffffffffffffffffffffffffff8114611afc5781811015611aee576040517f08c379a0000000000000000000000000000000000000000000000000000000008152600401611ae590613ab8565b60405180910390fd5b611afb84848484036118ab565b5b50505050565b600073ffffffffffffffffffffffffffffffffffffffff168373ffffffffffffffffffffffffffffffffffffffff161415611b72576040517f08c379a0000000000000000000000000000000000000000000000000000000008152600401611b6990613b4a565b60405180910390fd5b600073ffffffffffffffffffffffffffffffffffffffff168273ffffffffffffffffffffffffffffffffffffffff161415611be2576040517f08c379a0000000000000000000000000000000000000000000000000000000008152600401611bd990613bdc565b60405180910390fd5b611bed83838361281b565b6000603360008573ffffffffffffffffffffffffffffffffffffffff1673ffffffffffffffffffffffffffffffffffffffff16815260200190815260200160002054905081811015611c74576040517f08c379a0000000000000000000000000000000000000000000000000000000008152600401611c6b90613c6e565b60405180910390fd5b818103603360008673ffffffffffffffffffffffffffffffffffffffff1673ffffffffffffffffffffffffffffffffffffffff1681526020019081526020016000208190555081603360008573ffffffffffffffffffffffffffffffffffffffff1673ffffffffffffffffffffffffffffffffffffffff1681526020019081526020016000206000828254611d099190613456565b925050819055508273ffffffffffffffffffffffffffffffffffffffff168473ffffffffffffffffffffffffffffffffffffffff167fddf252ad1be2c89b69c2b068fc378daa952ba7f163c4a11628f55a4df523b3ef84604051611d6d9190612cc4565b60405180910390a3611d80848484612820565b50505050565b611d90828261133b565b611e6357600160c9600084815260200190815260200160002060000160008373ffffffffffffffffffffffffffffffffffffffff1673ffffffffffffffffffffffffffffffffffffffff16815260200190815260200160002060006101000a81548160ff021916908315150217905550611e08611806565b73ffffffffffffffffffffffffffffffffffffffff168173ffffffffffffffffffffffffffffffffffffffff16837f2f8788117e7eff1d82e926ec794901d17c78024a50270940304540a733656f0d60405160405180910390a45b5050565b611e71828261133b565b15611f4557600060c9600084815260200190815260200160002060000160008373ffffffffffffffffffffffffffffffffffffffff1673ffffffffffffffffffffffffffffffffffffffff16815260200190815260200160002060006101000a81548160ff021916908315150217905550611eea611806565b73ffffffffffffffffffffffffffffffffffffffff168173ffffffffffffffffffffffffffffffffffffffff16837ff6391f5c32d9c69d2a47ea670b442974b53935d1edc7fd64eb21e047a839171b60405160405180910390a45b5050565b6000611f777f360894a13ba1a3210667c828492db98dca3e2076cc3735a920a3ca505d382bbc60001b612825565b60000160009054906101000a900473ffffffffffffffffffffffffffffffffffffffff16905090565b7f189ab7a9244df0848122154315af71fe140f3db0fe014031783b0946b8c9d2e3611fd281611fcd611806565b61180e565b5050565b6120027f4910fdfa16fed3260ed0e7147f7cc6da11a60208b5b9406d12a635614ffd914360001b61282f565b60000160009054906101000a900460ff16156120265761202183612839565b61213f565b8273ffffffffffffffffffffffffffffffffffffffff166352d1902d6040518163ffffffff1660e01b8152600401602060405180830381865afa92505050801561208e57506040513d601f19601f8201168201806040525081019061208b9190613ca3565b60015b6120cd576040517f08c379a00000000000000000000000000000000000000000000000000000000081526004016120c490613d42565b60405180910390fd5b7f360894a13ba1a3210667c828492db98dca3e2076cc3735a920a3ca505d382bbc60001b8114612132576040517f08c379a000000000000000000000000000000000000000000000000000000000815260040161212990613dd4565b60405180910390fd5b5061213e8383836128f2565b5b505050565b600073ffffffffffffffffffffffffffffffffffffffff168273ffffffffffffffffffffffffffffffffffffffff1614156121b4576040517f08c379a00000000000000000000000000000000000000000000000000000000081526004016121ab90613e40565b60405180910390fd5b6121c06000838361281b565b80603560008282546121d29190613456565b9250508190555080603360008473ffffffffffffffffffffffffffffffffffffffff1673ffffffffffffffffffffffffffffffffffffffff16815260200190815260200160002060008282546122289190613456565b925050819055508173ffffffffffffffffffffffffffffffffffffffff16600073ffffffffffffffffffffffffffffffffffffffff167fddf252ad1be2c89b69c2b068fc378daa952ba7f163c4a11628f55a4df523b3ef8360405161228d9190612cc4565b60405180910390a36122a160008383612820565b5050565b600073ffffffffffffffffffffffffffffffffffffffff168273ffffffffffffffffffffffffffffffffffffffff161415612315576040517f08c379a000000000000000000000000000000000000000000000000000000000815260040161230c90613ed2565b60405180910390fd5b6123218260008361281b565b6000603360008473ffffffffffffffffffffffffffffffffffffffff1673ffffffffffffffffffffffffffffffffffffffff168152602001908152602001600020549050818110156123a8576040517f08c379a000000000000000000000000000000000000000000000000000000000815260040161239f90613f64565b60405180910390fd5b818103603360008573ffffffffffffffffffffffffffffffffffffffff1673ffffffffffffffffffffffffffffffffffffffff1681526020019081526020016000208190555081603560008282546124009190613f84565b92505081905550600073ffffffffffffffffffffffffffffffffffffffff168373ffffffffffffffffffffffffffffffffffffffff167fddf252ad1be2c89b69c2b068fc378daa952ba7f163c4a11628f55a4df523b3ef846040516124659190612cc4565b60405180910390a361247983600084612820565b505050565b600061248930611779565b15905090565b600060019054906101000a900460ff166124de576040517f08c379a00000000000000000000000000000000000000000000000000000000081526004016124d59061402a565b60405180910390fd5b6124e8828261291e565b5050565b600060019054906101000a900460ff1661253b576040517f08c379a00000000000000000000000000000000000000000000000000000000081526004016125329061402a565b60405180910390fd5b565b600060019054906101000a900460ff1661258c576040517f08c379a00000000000000000000000000000000000000000000000000000000081526004016125839061402a565b60405180910390fd5b565b600060019054906101000a900460ff166125dd576040517f08c379a00000000000000000000000000000000000000000000000000000000081526004016125d49061402a565b60405180910390fd5b565b6060600060028360026125f2919061374e565b6125fc9190613456565b67ffffffffffffffff8111156126155761261461301f565b5b6040519080825280601f01601f1916602001820160405280156126475781602001600182028036833780820191505090505b5090507f30000000000000000000000000000000000000000000000000000000000000008160008151811061267f5761267e61404a565b5b60200101907effffffffffffffffffffffffffffffffffffffffffffffffffffffffffffff1916908160001a9053507f7800000000000000000000000000000000000000000000000000000000000000816001815181106126e3576126e261404a565b5b60200101907effffffffffffffffffffffffffffffffffffffffffffffffffffffffffffff1916908160001a90535060006001846002612723919061374e565b61272d9190613456565b90505b60018111156127cd577f3031323334353637383961626364656600000000000000000000000000000000600f86166010811061276f5761276e61404a565b5b1a60f81b8282815181106127865761278561404a565b5b60200101907effffffffffffffffffffffffffffffffffffffffffffffffffffffffffffff1916908160001a905350600485901c9450806127c690613276565b9050612730565b5060008414612811576040517f08c379a0000000000000000000000000000000000000000000000000000000008152600401612808906140c5565b60405180910390fd5b8091505092915050565b505050565b505050565b6000819050919050565b6000819050919050565b61284281611779565b612881576040517f08c379a000000000000000000000000000000000000000000000000000000000815260040161287890614157565b60405180910390fd5b806128ae7f360894a13ba1a3210667c828492db98dca3e2076cc3735a920a3ca505d382bbc60001b612825565b60000160006101000a81548173ffffffffffffffffffffffffffffffffffffffff021916908373ffffffffffffffffffffffffffffffffffffffff16021790555050565b6128fb8361299f565b6000825111806129085750805b156129195761291783836129ee565b505b505050565b600060019054906101000a900460ff1661296d576040517f08c379a00000000000000000000000000000000000000000000000000000000081526004016129649061402a565b60405180910390fd5b8160369080519060200190612983929190612b39565b50806037908051906020019061299a929190612b39565b505050565b6129a881612839565b8073ffffffffffffffffffffffffffffffffffffffff167fbc7cd75a20ee27fd9adebab32041f755214dbc6bffa90cc0225b39da2e5c2d3b60405160405180910390a250565b60606129f983611779565b612a38576040517f08c379a0000000000000000000000000000000000000000000000000000000008152600401612a2f906141e9565b60405180910390fd5b6000808473ffffffffffffffffffffffffffffffffffffffff1684604051612a609190614250565b600060405180830381855af49150503d8060008114612a9b576040519150601f19603f3d011682016040523d82523d6000602084013e612aa0565b606091505b5091509150612ac8828260405180606001604052806027815260200161426860279139612ad2565b9250505092915050565b60608315612ae257829050612b32565b600083511115612af55782518084602001fd5b816040517f08c379a0000000000000000000000000000000000000000000000000000000008152600401612b299190612d78565b60405180910390fd5b9392505050565b828054612b4590613215565b90600052602060002090601f016020900481019282612b675760008555612bae565b82601f10612b8057805160ff1916838001178555612bae565b82800160010185558215612bae579182015b82811115612bad578251825591602001919060010190612b92565b5b509050612bbb9190612bbf565b5090565b5b80821115612bd8576000816000905550600101612bc0565b5090565b6000604051905090565b600080fd5b600080fd5b60007fffffffff0000000000000000000000000000000000000000000000000000000082169050919050565b612c2581612bf0565b8114612c3057600080fd5b50565b600081359050612c4281612c1c565b92915050565b600060208284031215612c5e57612c5d612be6565b5b6000612c6c84828501612c33565b91505092915050565b60008115159050919050565b612c8a81612c75565b82525050565b6000602082019050612ca56000830184612c81565b92915050565b6000819050919050565b612cbe81612cab565b82525050565b6000602082019050612cd96000830184612cb5565b92915050565b600081519050919050565b600082825260208201905092915050565b60005b83811015612d19578082015181840152602081019050612cfe565b83811115612d28576000848401525b50505050565b6000601f19601f8301169050919050565b6000612d4a82612cdf565b612d548185612cea565b9350612d64818560208601612cfb565b612d6d81612d2e565b840191505092915050565b60006020820190508181036000830152612d928184612d3f565b905092915050565b600073ffffffffffffffffffffffffffffffffffffffff82169050919050565b6000612dc582612d9a565b9050919050565b612dd581612dba565b8114612de057600080fd5b50565b600081359050612df281612dcc565b92915050565b612e0181612cab565b8114612e0c57600080fd5b50565b600081359050612e1e81612df8565b92915050565b60008060408385031215612e3b57612e3a612be6565b5b6000612e4985828601612de3565b9250506020612e5a85828601612e0f565b9150509250929050565b6000819050919050565b612e7781612e64565b82525050565b6000602082019050612e926000830184612e6e565b92915050565b600080600060608486031215612eb157612eb0612be6565b5b6000612ebf86828701612de3565b9350506020612ed086828701612de3565b9250506040612ee186828701612e0f565b9150509250925092565b612ef481612e64565b8114612eff57600080fd5b50565b600081359050612f1181612eeb565b92915050565b600060208284031215612f2d57612f2c612be6565b5b6000612f3b84828501612f02565b91505092915050565b60008060408385031215612f5b57612f5a612be6565b5b6000612f6985828601612f02565b9250506020612f7a85828601612de3565b9150509250929050565b600060ff82169050919050565b612f9a81612f84565b82525050565b6000602082019050612fb56000830184612f91565b92915050565b600060208284031215612fd157612fd0612be6565b5b6000612fdf84828501612de3565b91505092915050565b600060208284031215612ffe57612ffd612be6565b5b600061300c84828501612e0f565b91505092915050565b600080fd5b600080fd5b7f4e487b7100000000000000000000000000000000000000000000000000000000600052604160045260246000fd5b61305782612d2e565b810181811067ffffffffffffffff821117156130765761307561301f565b5b80604052505050565b6000613089612bdc565b9050613095828261304e565b919050565b600067ffffffffffffffff8211156130b5576130b461301f565b5b6130be82612d2e565b9050602081019050919050565b82818337600083830152505050565b60006130ed6130e88461309a565b61307f565b9050828152602081018484840111156131095761310861301a565b5b6131148482856130cb565b509392505050565b600082601f83011261313157613130613015565b5b81356131418482602086016130da565b91505092915050565b6000806040838503121561316157613160612be6565b5b600061316f85828601612de3565b925050602083013567ffffffffffffffff8111156131905761318f612beb565b5b61319c8582860161311c565b9150509250929050565b600080604083850312156131bd576131bc612be6565b5b60006131cb85828601612de3565b92505060206131dc85828601612de3565b9150509250929050565b7f4e487b7100000000000000000000000000000000000000000000000000000000600052602260045260246000fd5b6000600282049050600182168061322d57607f821691505b60208210811415613241576132406131e6565b5b50919050565b7f4e487b7100000000000000000000000000000000000000000000000000000000600052601160045260246000fd5b600061328182612cab565b9150600082141561329557613294613247565b5b600182039050919050565b7f416363657373436f6e74726f6c3a2063616e206f6e6c792072656e6f756e636560008201527f20726f6c657320666f722073656c660000000000000000000000000000000000602082015250565b60006132fc602f83612cea565b9150613307826132a0565b604082019050919050565b6000602082019050818103600083015261332b816132ef565b9050919050565b7f46756e6374696f6e206d7573742062652063616c6c6564207468726f7567682060008201527f64656c656761746563616c6c0000000000000000000000000000000000000000602082015250565b600061338e602c83612cea565b915061339982613332565b604082019050919050565b600060208201905081810360008301526133bd81613381565b9050919050565b7f46756e6374696f6e206d7573742062652063616c6c6564207468726f7567682060008201527f6163746976652070726f78790000000000000000000000000000000000000000602082015250565b6000613420602c83612cea565b915061342b826133c4565b604082019050919050565b6000602082019050818103600083015261344f81613413565b9050919050565b600061346182612cab565b915061346c83612cab565b9250827fffffffffffffffffffffffffffffffffffffffffffffffffffffffffffffffff038211156134a1576134a0613247565b5b828201905092915050565b7f555550535570677261646561626c653a206d757374206e6f742062652063616c60008201527f6c6564207468726f7567682064656c656761746563616c6c0000000000000000602082015250565b6000613508603883612cea565b9150613513826134ac565b604082019050919050565b60006020820190508181036000830152613537816134fb565b9050919050565b7f496e697469616c697a61626c653a20636f6e747261637420697320616c72656160008201527f647920696e697469616c697a6564000000000000000000000000000000000000602082015250565b600061359a602e83612cea565b91506135a58261353e565b604082019050919050565b600060208201905081810360008301526135c98161358d565b9050919050565b60008160011c9050919050565b6000808291508390505b60018511156136275780860481111561360357613602613247565b5b60018516156136125780820291505b8081029050613620856135d0565b94506135e7565b94509492505050565b60008261364057600190506136fc565b8161364e57600090506136fc565b8160018114613664576002811461366e5761369d565b60019150506136fc565b60ff8411156136805761367f613247565b5b8360020a91508482111561369757613696613247565b5b506136fc565b5060208310610133831016604e8410600b84101617156136d25782820a9050838111156136cd576136cc613247565b5b6136fc565b6136df84848460016135dd565b925090508184048111156136f6576136f5613247565b5b81810290505b9392505050565b600061370e82612cab565b915061371983612f84565b92506137467fffffffffffffffffffffffffffffffffffffffffffffffffffffffffffffffff8484613630565b905092915050565b600061375982612cab565b915061376483612cab565b9250817fffffffffffffffffffffffffffffffffffffffffffffffffffffffffffffffff048311821515161561379d5761379c613247565b5b828202905092915050565b7f45524332303a2064656372656173656420616c6c6f77616e63652062656c6f7760008201527f207a65726f000000000000000000000000000000000000000000000000000000602082015250565b6000613804602583612cea565b915061380f826137a8565b604082019050919050565b60006020820190508181036000830152613833816137f7565b9050919050565b600081905092915050565b7f416363657373436f6e74726f6c3a206163636f756e7420000000000000000000600082015250565b600061387b60178361383a565b915061388682613845565b601782019050919050565b600061389c82612cdf565b6138a6818561383a565b93506138b6818560208601612cfb565b80840191505092915050565b7f206973206d697373696e6720726f6c6520000000000000000000000000000000600082015250565b60006138f860118361383a565b9150613903826138c2565b601182019050919050565b60006139198261386e565b91506139258285613891565b9150613930826138eb565b915061393c8284613891565b91508190509392505050565b7f45524332303a20617070726f76652066726f6d20746865207a65726f2061646460008201527f7265737300000000000000000000000000000000000000000000000000000000602082015250565b60006139a4602483612cea565b91506139af82613948565b604082019050919050565b600060208201905081810360008301526139d381613997565b9050919050565b7f45524332303a20617070726f766520746f20746865207a65726f20616464726560008201527f7373000000000000000000000000000000000000000000000000000000000000602082015250565b6000613a36602283612cea565b9150613a41826139da565b604082019050919050565b60006020820190508181036000830152613a6581613a29565b9050919050565b7f45524332303a20696e73756666696369656e7420616c6c6f77616e6365000000600082015250565b6000613aa2601d83612cea565b9150613aad82613a6c565b602082019050919050565b60006020820190508181036000830152613ad181613a95565b9050919050565b7f45524332303a207472616e736665722066726f6d20746865207a65726f20616460008201527f6472657373000000000000000000000000000000000000000000000000000000602082015250565b6000613b34602583612cea565b9150613b3f82613ad8565b604082019050919050565b60006020820190508181036000830152613b6381613b27565b9050919050565b7f45524332303a207472616e7366657220746f20746865207a65726f206164647260008201527f6573730000000000000000000000000000000000000000000000000000000000602082015250565b6000613bc6602383612cea565b9150613bd182613b6a565b604082019050919050565b60006020820190508181036000830152613bf581613bb9565b9050919050565b7f45524332303a207472616e7366657220616d6f756e742065786365656473206260008201527f616c616e63650000000000000000000000000000000000000000000000000000602082015250565b6000613c58602683612cea565b9150613c6382613bfc565b604082019050919050565b60006020820190508181036000830152613c8781613c4b565b9050919050565b600081519050613c9d81612eeb565b92915050565b600060208284031215613cb957613cb8612be6565b5b6000613cc784828501613c8e565b91505092915050565b7f45524331393637557067726164653a206e657720696d706c656d656e7461746960008201527f6f6e206973206e6f742055555053000000000000000000000000000000000000602082015250565b6000613d2c602e83612cea565b9150613d3782613cd0565b604082019050919050565b60006020820190508181036000830152613d5b81613d1f565b9050919050565b7f45524331393637557067726164653a20756e737570706f727465642070726f7860008201527f6961626c65555549440000000000000000000000000000000000000000000000602082015250565b6000613dbe602983612cea565b9150613dc982613d62565b604082019050919050565b60006020820190508181036000830152613ded81613db1565b9050919050565b7f45524332303a206d696e7420746f20746865207a65726f206164647265737300600082015250565b6000613e2a601f83612cea565b9150613e3582613df4565b602082019050919050565b60006020820190508181036000830152613e5981613e1d565b9050919050565b7f45524332303a206275726e2066726f6d20746865207a65726f2061646472657360008201527f7300000000000000000000000000000000000000000000000000000000000000602082015250565b6000613ebc602183612cea565b9150613ec782613e60565b604082019050919050565b60006020820190508181036000830152613eeb81613eaf565b9050919050565b7f45524332303a206275726e20616d6f756e7420657863656564732062616c616e60008201527f6365000000000000000000000000000000000000000000000000000000000000602082015250565b6000613f4e602283612cea565b9150613f5982613ef2565b604082019050919050565b60006020820190508181036000830152613f7d81613f41565b9050919050565b6000613f8f82612cab565b9150613f9a83612cab565b925082821015613fad57613fac613247565b5b828203905092915050565b7f496e697469616c697a61626c653a20636f6e7472616374206973206e6f74206960008201527f6e697469616c697a696e67000000000000000000000000000000000000000000602082015250565b6000614014602b83612cea565b915061401f82613fb8565b604082019050919050565b6000602082019050818103600083015261404381614007565b9050919050565b7f4e487b7100000000000000000000000000000000000000000000000000000000600052603260045260246000fd5b7f537472696e67733a20686578206c656e67746820696e73756666696369656e74600082015250565b60006140af602083612cea565b91506140ba82614079565b602082019050919050565b600060208201905081810360008301526140de816140a2565b9050919050565b7f455243313936373a206e657720696d706c656d656e746174696f6e206973206e60008201527f6f74206120636f6e747261637400000000000000000000000000000000000000602082015250565b6000614141602d83612cea565b915061414c826140e5565b604082019050919050565b6000602082019050818103600083015261417081614134565b9050919050565b7f416464726573733a2064656c65676174652063616c6c20746f206e6f6e2d636f60008201527f6e74726163740000000000000000000000000000000000000000000000000000602082015250565b60006141d3602683612cea565b91506141de82614177565b604082019050919050565b60006020820190508181036000830152614202816141c6565b9050919050565b600081519050919050565b600081905092915050565b600061422a82614209565b6142348185614214565b9350614244818560208601612cfb565b80840191505092915050565b600061425c828461421f565b91508190509291505056fe416464726573733a206c6f772d6c6576656c2064656c65676174652063616c6c206661696c6564a2646970667358221220f862dbb57d975cd2344c6cae0febef115509d56fa43fc4e2df9e8f688d574d3364736f6c634300080c0033",
  "immutableReferences": {
    "898": [
      {
        "length": 32,
        "start": 3045
      },
      {
        "length": 32,
        "start": 3188
      },
      {
        "length": 32,
        "start": 3693
      },
      {
        "length": 32,
        "start": 3836
      },
      {
        "length": 32,
        "start": 4012
      }
    ]
  },
  "source": "// SPDX-License-Identifier: MIT\npragma solidity ^0.8.4;\n\nimport \"@openzeppelin/contracts-upgradeable/token/ERC20/ERC20Upgradeable.sol\";\nimport \"@openzeppelin/contracts-upgradeable/token/ERC20/extensions/ERC20BurnableUpgradeable.sol\";\nimport \"@openzeppelin/contracts-upgradeable/access/AccessControlUpgradeable.sol\";\nimport \"@openzeppelin/contracts-upgradeable/proxy/utils/Initializable.sol\";\nimport \"@openzeppelin/contracts-upgradeable/proxy/utils/UUPSUpgradeable.sol\";\n\ncontract DLTSCBTokenV1 is Initializable, ERC20Upgradeable, ERC20BurnableUpgradeable, AccessControlUpgradeable, UUPSUpgradeable {\n    bytes32 public constant MINTER_ROLE = keccak256(\"MINTER_ROLE\");\n    bytes32 public constant UPGRADER_ROLE = keccak256(\"UPGRADER_ROLE\");\n    bytes32 public constant USER_ROLE = keccak256(\"USER_ROLE\");\n    //    bytes32 public constant INTERN_ROLE = keccak256(\"INTERN_ROLE\");\n    uint256 public count;\n\n    /// @custom:oz-upgrades-unsafe-allow constructor\n    constructor() initializer {}\n\n    function initialize() initializer public {\n        __ERC20_init(\"DLTSCBToken\", \"SCB\");\n        __ERC20Burnable_init();\n        __AccessControl_init();\n        __UUPSUpgradeable_init();\n\n        _mint(msg.sender, 1000 * 10 ** decimals());\n        // _setupRole(DEFAULT_ADMIN_ROLE, msg.sender);\n        // _setRoleAdmin(USER_ROLE, DEFAULT_ADMIN_ROLE);\n        // _setRoleAdmin(INTERN_ROLE, USER_ROLE);\n\n        _grantRole(DEFAULT_ADMIN_ROLE, msg.sender);\n        _grantRole(MINTER_ROLE, msg.sender);\n        _grantRole(UPGRADER_ROLE, msg.sender);\n        _grantRole(USER_ROLE, msg.sender);\n\n        count = 0;\n    }\n\n    function addUserToAdminRole (address account) public onlyRole(DEFAULT_ADMIN_ROLE) {\n        grantRole(DEFAULT_ADMIN_ROLE, account);\n    }\n\n    function addUserRole (address account) public onlyRole(DEFAULT_ADMIN_ROLE) {\n        grantRole(USER_ROLE, account);\n    }\n\n   function isUserRole(address account) public view returns (bool) {\n        return hasRole(USER_ROLE, account);\n    }\n    modifier onlyUsers(){\n        require(isUserRole(msg.sender), \"Restricted to users.\");\n        _;\n    }\n  \n    function revokeUserRole (address _account) public onlyRole(DEFAULT_ADMIN_ROLE) {\n        _revokeRole(USER_ROLE, _account);\n    }\n\n    function mint(address to, uint256 amount) public onlyRole(MINTER_ROLE) {\n        _mint(to, amount);\n    }\n    // Function that increments our counter\n    function increment() public onlyRole(USER_ROLE) {\n        // require(hasRole(USER_ROLE, msg.sender));\n        count += 1;\n    }\n            // Function that increments our counter\n    function decrement() public onlyRole(USER_ROLE) {\n        count--;\n    }\n    // Not necessary getter to get the count value\n    function getCount() public view returns (uint256) {\n        return count;\n    }\n // Not necessary getter to get the count value restricted\n    function getCount2() public onlyRole(USER_ROLE) view returns (uint256) {\n        return count;\n    }\n  \n    function decrement2() public onlyRole(USER_ROLE) {\n        count--;\n    }\n\n    function _authorizeUpgrade(address newImplementation)\n        internal\n        onlyRole(UPGRADER_ROLE)\n        override\n    {}\n}",
  "sourcePath": "/Users/pinkyjain/Downloads/BLOCKCHAIN/truffle-uups-accesscontrol/contracts/ERC20CustomUpgradeable/DTLSCBTokenV1.sol",
  "compiler": {
    "name": "solc",
    "version": "0.8.12+commit.f00d7308.Emscripten.clang"
  },
  "schemaVersion": "3.4.5",
  "updatedAt": "2022-03-11T14:44:37.135Z",
  "networkType": "ethereum",
  "devdoc": {
    "kind": "dev",
    "methods": {
      "allowance(address,address)": {
        "details": "See {IERC20-allowance}."
      },
      "approve(address,uint256)": {
        "details": "See {IERC20-approve}. NOTE: If `amount` is the maximum `uint256`, the allowance is not updated on `transferFrom`. This is semantically equivalent to an infinite approval. Requirements: - `spender` cannot be the zero address."
      },
      "balanceOf(address)": {
        "details": "See {IERC20-balanceOf}."
      },
      "burn(uint256)": {
        "details": "Destroys `amount` tokens from the caller. See {ERC20-_burn}."
      },
      "burnFrom(address,uint256)": {
        "details": "Destroys `amount` tokens from `account`, deducting from the caller's allowance. See {ERC20-_burn} and {ERC20-allowance}. Requirements: - the caller must have allowance for ``accounts``'s tokens of at least `amount`."
      },
      "constructor": {
        "custom:oz-upgrades-unsafe-allow": "constructor"
      },
      "decimals()": {
        "details": "Returns the number of decimals used to get its user representation. For example, if `decimals` equals `2`, a balance of `505` tokens should be displayed to a user as `5.05` (`505 / 10 ** 2`). Tokens usually opt for a value of 18, imitating the relationship between Ether and Wei. This is the value {ERC20} uses, unless this function is overridden; NOTE: This information is only used for _display_ purposes: it in no way affects any of the arithmetic of the contract, including {IERC20-balanceOf} and {IERC20-transfer}."
      },
      "decreaseAllowance(address,uint256)": {
        "details": "Atomically decreases the allowance granted to `spender` by the caller. This is an alternative to {approve} that can be used as a mitigation for problems described in {IERC20-approve}. Emits an {Approval} event indicating the updated allowance. Requirements: - `spender` cannot be the zero address. - `spender` must have allowance for the caller of at least `subtractedValue`."
      },
      "getRoleAdmin(bytes32)": {
        "details": "Returns the admin role that controls `role`. See {grantRole} and {revokeRole}. To change a role's admin, use {_setRoleAdmin}."
      },
      "grantRole(bytes32,address)": {
        "details": "Grants `role` to `account`. If `account` had not been already granted `role`, emits a {RoleGranted} event. Requirements: - the caller must have ``role``'s admin role."
      },
      "hasRole(bytes32,address)": {
        "details": "Returns `true` if `account` has been granted `role`."
      },
      "increaseAllowance(address,uint256)": {
        "details": "Atomically increases the allowance granted to `spender` by the caller. This is an alternative to {approve} that can be used as a mitigation for problems described in {IERC20-approve}. Emits an {Approval} event indicating the updated allowance. Requirements: - `spender` cannot be the zero address."
      },
      "name()": {
        "details": "Returns the name of the token."
      },
      "proxiableUUID()": {
        "details": "Implementation of the ERC1822 {proxiableUUID} function. This returns the storage slot used by the implementation. It is used to validate that the this implementation remains valid after an upgrade. IMPORTANT: A proxy pointing at a proxiable contract should not be considered proxiable itself, because this risks bricking a proxy that upgrades to it, by delegating to itself until out of gas. Thus it is critical that this function revert if invoked through a proxy. This is guaranteed by the `notDelegated` modifier."
      },
      "renounceRole(bytes32,address)": {
        "details": "Revokes `role` from the calling account. Roles are often managed via {grantRole} and {revokeRole}: this function's purpose is to provide a mechanism for accounts to lose their privileges if they are compromised (such as when a trusted device is misplaced). If the calling account had been revoked `role`, emits a {RoleRevoked} event. Requirements: - the caller must be `account`."
      },
      "revokeRole(bytes32,address)": {
        "details": "Revokes `role` from `account`. If `account` had been granted `role`, emits a {RoleRevoked} event. Requirements: - the caller must have ``role``'s admin role."
      },
      "supportsInterface(bytes4)": {
        "details": "See {IERC165-supportsInterface}."
      },
      "symbol()": {
        "details": "Returns the symbol of the token, usually a shorter version of the name."
      },
      "totalSupply()": {
        "details": "See {IERC20-totalSupply}."
      },
      "transfer(address,uint256)": {
        "details": "See {IERC20-transfer}. Requirements: - `to` cannot be the zero address. - the caller must have a balance of at least `amount`."
      },
      "transferFrom(address,address,uint256)": {
        "details": "See {IERC20-transferFrom}. Emits an {Approval} event indicating the updated allowance. This is not required by the EIP. See the note at the beginning of {ERC20}. NOTE: Does not update the allowance if the current allowance is the maximum `uint256`. Requirements: - `from` and `to` cannot be the zero address. - `from` must have a balance of at least `amount`. - the caller must have allowance for ``from``'s tokens of at least `amount`."
      },
      "upgradeTo(address)": {
        "details": "Upgrade the implementation of the proxy to `newImplementation`. Calls {_authorizeUpgrade}. Emits an {Upgraded} event."
      },
      "upgradeToAndCall(address,bytes)": {
        "details": "Upgrade the implementation of the proxy to `newImplementation`, and subsequently execute the function call encoded in `data`. Calls {_authorizeUpgrade}. Emits an {Upgraded} event."
      }
    },
    "version": 1
  },
  "userdoc": {
    "kind": "user",
    "methods": {},
    "version": 1
  }
}